:020000040800F2
:1000000040110020ED060008F5020008D90600089E
:10001000D9060008D9060008D9060008000000002B
:10002000000000000000000000000000F1070008D0
:10003000D90600080000000089070008B114000874
:10004000BD090008BD090008BD090008BD09000878
:10005000BD090008BD090008BD090008BD09000868
:10006000BD090008BD090008BD090008BD09000858
:10007000BD090008BD090008BD090008BD09000848
:10008000BD090008BD090008BD090008BD09000838
:10009000BD090008BD090008BD090008BD09000828
:1000A000BD090008BD090008BD090008BD09000818
:1000B000BD090008BD090008BD090008BD09000808
:1000C000BD090008BD090008BD090008BD090008F8
:1000D000BD090008BD090008BD090008BD090008E8
:1000E000BD090008BD090008BD090008BD090008D8
:1000F000BD090008BD090008BD090008BD090008C8
:10010000BD090008BD090008BD090008BD090008B7
:10011000BD090008BD090008BD090008BD090008A7
:10012000BD090008BD090008BD090008BD09000897
:10013000BD090008BD090008BD090008BD09000887
:10014000BD090008BD090008BD090008BD09000877
:10015000BD090008BD090008BD090008BD09000867
:10016000BD090008BD090008BD090008BD09000857
:10017000BD090008BD090008BD090008BD09000847
:10018000BD090008BD090008BD090008BD09000837
:04019000BD0900089D
:1001940008B5234803F07CFB08B9002008BD4FF4E0
:1001A4008031204802F0D9FB0028F6D14FF0B86224
:1001B4000D211B4802F091FB0028EED11A491B4B7C
:1001C4004B604FF400538B60154802F00AFC184B47
:1001D400186828B103F05CFB10B9154B00221A60B3
:1001E400134B1B6843B14FF40031114802F0B5FBC7
:1001F40010B10F4B00221A600D4B1B6843B9CCE7BA
:100204000B4B1979186802F0DFFB012002F0F4FBB4
:100214000D21034802F0B8FB021EF1DAF5E700BF36
:10022400CC3D00082441000820020020FB290008DE
:100234000000002008B5024B1B68984708BD00BFAA
:100244000800002000B585B00A46002300930193FE
:100254000293039302238DF80230044B0193014669
:10026400684602F0DDF805B05DF804FB39020008C9
:10027400014B1860704700BF0800002080B5054698
:100284000E461746984601F07DFF034603F01AFD1B
:100294000446DFF8189049F80030424639463046A3
:1002A400A84754F8090000F039FA00BF080000001C
:1002B400044B054A1A60054A536843F0010353602E
:1002C400002070476C00002000127A00002004E037
:1002D400034A536823F0020353600020704700BFB1
:1002E400002004E0014B0360002070472C4100080B
:1002F40008B5034B1B68984700F048F808BD00BFD9
:100304000C00002030BFFFF7FDBF00BF38B5044626
:10031400084D2A46084903F0BFFC0848431E2B44F5
:10032400B3FBF0F3064A002100FB034003F0C2FCD8
:1003340038BD00BF000000001C410008010000009F
:100344000400000070B505460C480D4A0244013A09
:10035400B2FBF0F20B4B0C4C1C44013CB4FBF3F429
:1003640004FB03F300FB02340E1B3046FFF7CEFF01
:10037400083EC5F8A46004F1080070BD0100000047
:10038400000000000400000004000000044B996811
:100394005869884203D003494FF080520A6070477D
:1003A4003803002004ED00E038B51546204B9B6A65
:1003B40013F4805F19D116241D4B9B6A13F4006F4C
:1003C40000D018241A4B9B6A13F4007F10D0184BEA
:1003D4009A6B9B6A13F4004F09D0D9B1144A936AFB
:1003E40023F400439362192402E01724E4E7192458
:1003F4000F4B9B6A13F4806F00D01A240C4B9B6A3A
:1004040013F4807F08D10A4B9B6A13F4005F04D075
:100414001C2402E01924EBE71B24054A936A43F4E5
:100424007F439362012102F087FB2870204638BD88
:1004340000ED00E0174B9B6A13F0007F25D11D20CF
:10044400144B9B6A13F0807F00D01F20114B9B6AD2
:1004540013F4002F00D021200E4B9B6A13F4802F3D
:1004640000D022200B4B9B6A13F4003F00D02320C2
:10047400084B9B6A13F4803F09D1064A936A6FEADA
:1004840003436FEA1343936270471E20D8E7242086
:10049400F3E700BF00ED00E081690D4B5A6942F4B7
:1004A40080725A61BFF34F8FBFF36F8F31F8021C14
:1004B4005A6922F480725A61BFF34F8FBFF36F8F72
:1004C4004DF60273994201D0002070470120704715
:1004D40000ED00E070B504461646324B9B6A13F0FB
:1004E400100F1AD110252F4B9B6A13F0080F00D060
:1004F40012252C4B9B6A13F0020F10D0294B586B1A
:100504009B6A13F0800F3DD000293FD0254A936A9F
:1005140023F080039362132503E01125E3E76FF0D2
:100524001500204B9B6A13F0010F00D014251D4BBE
:100534009B6A13F0200F00D015251A4B9B6A13F009
:10054400100F04D1174B9B6A13F0020F04D0154B04
:100554005B6813F4006F1BD1124B9B6A13F0200FDE
:1005640004D0104A536A23F4005353620D4A936A29
:1005740043F0FF0393620121204602F0DDFA30705C
:10058400284670BD6FF015001325CAE71325C8E788
:10059400214600F0A3F90028DED080F30988022563
:1005A400DAE700BF00ED00E038B5054600230B7024
:1005B4001A4BD86A10F002002DD10C46DB6A002BCE
:1005C4002ADB164BD86A10F0804025D02846FFF766
:1005D40063FF08B128681FE0104B9B6A13F0FF0FFC
:1005E4000DD10E4B986A10F47F400ED10B4B9B6AD1
:1005F400B3F5803F10D32846FFF71CFF0CE02246DA
:1006040001212846FFF766FF06E02246012128461D
:10061400FFF7CAFE00E0002038BD00BF00ED00E097
:1006240030B58BB00C46264B5968C1F30801002342
:1006340083F31188BFF36F8F02F07F43B3F17F4FD1
:1006440015D102F00C03082B14D012F0080F0BD0B4
:1006540000250DF12702204602F073FA86469DF824
:10066400273053B10BB030BD04460125F1E7002516
:100674002C46EEE700252C46EBE70DF1040C206830
:100684006168A268E368ACE80F0020696169A26947
:10069400E369ACE80F0045B1C3F308025AB96FEA45
:1006A40053236FEA4323089305E0089B23F4FF7365
:1006B40023F00103089301A9704602F033FAD1E74D
:1006C40000ED00E0024A536943F0100353617047A0
:1006D40000ED00E0EFF30880EFF3098101B5724605
:1006E400FFF79EFF01BD00BF00200A4908701020DB
:1006F40080F3118808484FF40461401880F3098896
:10070400EFF314800221084380F31488BFF36F8F42
:1007140000F09EF8710300208003002008B50A4B06
:100724009B68834202D003F0BDF908BDEFF3058353
:10073400002BF8D0054B5A6842F080525A605A6A2E
:1007440022F400425A62EEE73803002000ED00E094
:100754000A4A9368C3F8A8006FF00A01C3F8AC1002
:1007640007494B6843F080534B60002383F311889F
:10077400BFF36F8F9368D3F8AC0070473803002041
:1007840000ED00E016498A684FF030001044EFF3A2
:10079400098C80E8F01F102080F31288BFF36F8F5C
:1007A400104F4FF000664A698A603E604FF0A4041F
:1007B400141920680C4C2060D2F8A8000023C2F859
:1007C400A83080F3118804B5104600F017F9BDE88D
:1007D400044002F1300090E8F01F8CF30988704760
:1007E4003803002004ED00E02C0200201EF0040F6A
:1007F4000CBFEFF30880EFF30980816911F8021C44
:100804000229FFD001B502F091F901BD002807DBF0
:1008140000F01F02400901239340024A42F82030AD
:10082400704700BF00E100E0002808DB0901C9B2FD
:1008340000F1604000F5614080F80013704700F05B
:100844000F000901C9B2014B1954704714ED00E0BF
:1008540008B50F4B0F4A22F07F029A60BFF34F8F07
:10086400BFF36F8FD3F8882022F47002C3F8882076
:10087400EFF3148323F0040383F31488BFF36F8F1F
:1008840001F002F801F084FC00F07CF801F068F853
:1008940000ED00E00000000810B4A2F120040E49AD
:1008A40042F8081C21F0010142F8081C42F8203CDF
:1008B400019B42F81C3C029B42F8183C039B42F803
:1008C400143C4FF0807342F8043C04650023C0F8E4
:1008D400A83010BC704700BF81020008104B9B6811
:1008E400BBB110F1160F0BD0D3F89420A2F1400C39
:1008F400844510D8824210D98A4207D80020704714
:10090400D3F894208A4201D800207047D3F8940089
:10091400704700207047002070470020704700BFD8
:100924003803002008B50D4614460A4A9060D0F8F2
:10093400A420094B1A6000F061F8204685F3098869
:10094400002163B681F31188BFF36F8F0022002367
:10095400FFF794FC380300202C02002001491022E8
:100964000A60704710ED00E072B6404080F31188D1
:10097400BFF36F8FBFF34F8F30BF62B6BFF36F8F7C
:10098400704700BF002206E003F00F030949194431
:1009940010230B760132542A0ADC53B2002BF3DB0A
:1009A40003F1604303F56143102183F80013F1E779
:1009B400704700BFFCEC00E001B5EFF30580A0F147
:1009C40010004FEAC0000449014409C99847BDE832
:1009D4000140024908470000303E00089103000826
:1009E40008B5034B034A0121034802F00FFA08BD7E
:1009F40000000120000000202C41000808B5D0F8B8
:100A04009430403B0448036040234360034B8360BD
:100A1400012102F0FFF908BD3002002000000B158F
:100A2400084AC2F898000B6823F01F03034343F0FD
:100A34001003C2F89C308B6843F00103C2F8A03065
:100A4400704700BF00ED00E0084BD3F89030C3F3CB
:100A54000723013B984205D810B50446FFF7E0FF91
:100A6400204610BD6FF01500704700BF00ED00E098
:100A740010B5034C0123227802F0C7F8207010BD92
:100A84007003002008B500230B4A127802F0BDF869
:100A940010F1160F0FD0024606E0084BC3F8982059
:100AA4000021C3F8A0100132044BD3F89030C3F3F3
:100AB40007239342F1DC08BD7003002000ED00E041
:100AC400044B0522C3F89420BFF34F8FBFF36F8FFD
:100AD400704700BF00ED00E0BFF35F8F024B0022C0
:100AE400C3F89420704700BF00ED00E038B51C4BFC
:100AF4001D681C4BD3F89030C3F307239D422BD8B9
:100B0400FFF7EAFF002409E0154B5B6804EB44019E
:100B140003EB81012046FFF783FF0134A542F3D89C
:100B24001148057002F099F810F1160F13D00E4B0E
:100B34001A780C4BD3F89030C3F307239A4207DAA0
:100B4400084BC3F898200021C3F8A0100132F0E745
:100B5400FFF7B6FF002038BD4FF0FF30FBE700BFC2
:100B64003841000800ED00E07003002008B5024B96
:100B74001B689847002008BD3C020020034B186006
:100B8400034A937843F00203937070473C020020B9
:100B94001000002008B5064921F00701C1F10052F8
:100BA40002F58032034801F06AFF002008BD00BF4F
:100BB400871100204002002038B50546002401E0DA
:100BC4000134E4B26B78A34216D3287820441F285A
:100BD400F6DC01238340094A526933EA0202EFD169
:100BE400064A5361064B53F83020002AE8D003EB41
:100BF400C00359689047E3E738BD00BF00040140D3
:100C04004C020020002399420ADD10B400EB030CCF
:100C1400044C04F80C2001339942F7DC10BC7047F3
:100C2400704700BF2000002008B50246054B185647
:100C340001239340044A11680B43136001F0A4FF9D
:100C440008BD00BF20000020000401401F2806DC6E
:100C54000122824002490B6823EA02030B607047B9
:100C64000004014003292ED8DFE801F0020E192404
:100C740001228240144B996821EA02019960D968E3
:100C840021EA0202DA607047012282400E4B996821
:100C940011439960D96821EA0202DA60704701229F
:100CA4008240094BD9681143D960996821EA02024C
:100CB4009A60704701238340034A91681943916005
:100CC400D1680B43D36070470004014010B40D4B4E
:100CD40053F830308B4209D08BB90A4B43F83010AB
:100CE40003EBC0035A60002010BC7047054C04EBB2
:100CF400C00CDCF804409442EED10020F4E76FF01D
:100D04000F00F1E74C020020034B002243F830208F
:100D140003EBC0035A6070474C0200200C4B1B6865
:100D240013F0020F09D10A4A136843F00103136058
:100D3400074B1B6813F0020FFAD0054A536823F0DF
:100D440003035360024B5B6813F00C0FFAD1704736
:100D5400001002400C4B1A6842F480221A601A6890
:100D640042F480321A60084B1B6813F4003FFAD037
:100D7400054A536A43F001035362034B5B6A13F061
:100D8400020FFAD0704700BF0010024010B50F4B9D
:100D94005B6803F00C03082B10D00C4C236823F081
:100DA4008073236000F0ACF8236843F08073236001
:100DB400064B1B6813F0007FFAD010BDFFF7AEFF9F
:100DC400024A536823F0F0035360E6E70010024040
:100DD40038B500F0B7F800F04BFC1E4B5B68C3F36A
:100DE40003131D4AD35C20FA03F513781B4C1C41F2
:100DF400A54226D3FFF7AEFFFFF7C8FF154A536895
:100E040023F0F0035360536823F0030343F0020319
:100E14005360104B5B6803F00C03082BF9D1A54217
:100E240013D20F4B0D4A1A600A4A536823F4E06345
:100E340043F480635360536823F460535360002089
:100E440038BD204600F052FCD4E7204600F04EFCAA
:100E5400E7E700BF00100240D043000800A24A04A4
:100E64006C000020F8B50C461546244B1E68022180
:100E7400304602F021F807460121304602F01CF802
:100E84002368052B31D0013B1B2B31D8DFE803F05D
:100E94001722252A301A303030303030303030309C
:100EA4003030300E30303014303030112E600020AD
:100EB40020E02F6000201DE0286000201AE02E6052
:100EC400002017E000F02AF8A8B100F027F8286005
:100ED40000200FE0002028600CE049F640432B601E
:100EE400002007E00020286004E06FF0850001E0A6
:100EF4006FF08500F8BD6FF00400FBE76C00002084
:100F0400054A536823F4761343F4E8135360D36A11
:100F140023F00F03D3627047001002404FF47013A4
:100F240093FAA3F353B1B3FA83F34FF4E01020FA26
:100F340003F30233024803FB00F070472023F4E775
:100F440000127A0082B0064BDA6942F08052DA610C
:100F5400DB6903F080530193019B02B0704700BF2B
:100F64000010024010B504460A2806D0E1B2064833
:100F740083685B689847204610BD034883685B68B4
:100F84000D219847F2E700BF083E000810B5044C55
:100F94002046FFF7F3FD2046FFF76AF910BD00BFB6
:100FA400690F000808B5054802F072FC18B1FFF794
:100FB400EDFF002008BD6FF01200FBE7083E0008BB
:100FC40008B5436831B107488268126803F10C011F
:100FD400904708BD03488268526803F10C019047AA
:100FE400F7E700BF543D000801F0030C0CF10202C6
:100FF4000A4B53F822200B0C22EA114193FAA3F373
:101004004BB1B3FA83F3984001430CF1020C034A49
:1010140042F82C1070472023F5E700BF0000014080
:1010240070B582B004460D460A4A6B4692E8030046
:1010340083E8030008488268126819469047064608
:1010440010B1304602B070BD2946204602F072F954
:10105400F7E700BF1C410008543D000800F00303FB
:101064000233074A52F82320030C02EA104093FA91
:10107400A3F31BB1B3FA83F3D84070472023FBE7F3
:1010840000000140F8B50C46114647680269B1F505
:10109400001F1FD01D46B1F5800F34D01D492046D6
:1010A400FFF714FE064688BB2146B868FFF7B8FF71
:1010B400B5F1806F23D0B5F1C06F22D0B5F1007FB8
:1010C4001BD031462046FFF7CDFD2046FFF7ACFD8F
:1010D4003046F8BD204602F044F9BB68984201D07E
:1010E4000026F5E72046FFF7B1FD2046FFF70CFE8A
:1010F40000212046FFF7B6FDF2E70221E2E70121D5
:10110400E0E70321DEE76FF08506E1E76FF00F0605
:10111400DEE700BF7530000810B504460369586067
:10112400074802F0B5FB38B101212046FFF748FF1C
:10113400002800DB002010BD6FF01200FBE700BFA9
:10114400543D0008AF2817D8F8B504460D46164696
:1011540003090B4A52F823705FB1384602F098FB3A
:1011640038B133462A4604F00F01384602F010F92C
:10117400F8BD6FF01200FBE76FF01500704700BF79
:10118400B04200082DE9F84305460C46D0F8048027
:101194000369D3F804900B79012B14D0022B15D1D9
:1011A4004FF480616279012A15D0022A15D07AB1F0
:1011B4004FF40056A779022F12D0042F16D0002B1B
:1011C40058D1002014E04FF4C061EBE70021E9E7B7
:1011D4004FF48056EEE70026ECE74FF44056E9E77B
:1011E4000BB1002004E04FF0805001E04FF4805038
:1011F400A3F1030C5FFA8CFCBCF1010F51D90BB1C4
:10120400042F51D0B6F5805F39D0B6F5405F38D0A1
:101214009EB303239A424AD102F08BF9874249D103
:10122400E37983B1012B2ED0032B46D1D8F80030BB
:10123400254A934207D0A2F57442934203D002F5A3
:10124400806293423CD1D8F80020136823F0010354
:1012540013602146284602F081F9D8F8002013686B
:1012640043F00103136094E8030089E803000020BD
:10127400BDE8F8834FF48050BAE70123CAE700239E
:10128400C8E70223C6E7D8F800200F498A42DAD01B
:10129400A1F574418A42D6D001F580618A42C3D156
:1012A400D1E76FF08500E3E76FF08500E0E76FF0CA
:1012B4008500DDE76FF08500DAE76FF08500D7E79A
:1012C4006FF08500D4E700BF0038014008B5024A3A
:1012D40002F041FA08BD00BFC137000800B583B071
:1012E4008DF80710034A0DF1070102F048FA03B024
:1012F4005DF804FBC937000838B545680469074838
:10130400206002F0C5FA28B1206883681B68E96888
:10131400984738BD6FF01200FBE700BF543D00084A
:1013240070B50546446803695E682268136823F053
:1013340001031360606802F0ABFA00286ED0A16864
:10134400606802F0C2F8226852E8003F43F00C03E0
:1013540042E800310029F7D13146284602F0FEF870
:10136400237D23B12268936843F008039360637D6F
:1013740023B12268536843F400435360A37D23B12F
:101384002268536843F480335360E37D23B12268B9
:10139400536843F400335360237E43B32368224AE3
:1013A400934207D0A2F57442934203D002F58062BF
:1013B400934236D16B681A68936843F48043936010
:1013C4002268617E136823F0787343EA4153136003
:1013D4002268A17E136823F4F81343EA01431360DF
:1013E400E37E23B12268936843F400439360226848
:1013F400136843F00103136000E03BB92168CB6933
:1014040013F40013F9D00123F7E72AB9CA6912F4D7
:101414008002FAD01A46F8E7002070BD6FF012007F
:10142400FBE76FF01500F8E7003801404FF0E023C8
:10143400996918699A6909B90C4B19680AB90B4B6F
:101444001A6810F4803F01D1914208D208490B6810
:101454000648006803440B604FF0E0231B69034B0C
:101464001B689B1A024A1068184470473003002016
:101474002C0300200A4B102283F82320094B4FF43D
:10148400E1521A600020084B18604FF0E02341F647
:101494001F425A6198611A6942F007021A61704743
:1014A40000ED00E0300300202C03002010B5FFF70E
:1014B400BDFF11480368114A516814681B1941F1B2
:1014C400000113605160002202600D490A68981AF5
:1014D4000C4BA3FB0030000B4FF4E15300FB03F370
:1014E400D2184B6843F100030A604B6000F00CFF14
:1014F400FEF74CFF10BD00BF2C0300209800002015
:1015040090000020C5B3A291F8B500294ED0B0F1E7
:10151400FF3F40D0404B1C6801284FDD40F61A13B2
:101524009842A8BF1846461E4FF01003EFF31185EA
:1015340083F31288BFF36F8FFFF778FF4FF0E02338
:101544009F69364A13685168C31841F1000113605A
:1015540051600021324A1160324A11685A1A2FD45C
:101564004FF4E15000FB062202F5E0521F322E4EEA
:10157400A6FB0262120BC91A00FB02110A46B1F55E
:10158400806F38BF4FF48062284B994236D9224B82
:10159400264A1A6018E04FF0E022136923F0010391
:1015A40013611D4B4FF07F421A6026E01A4B1C68F2
:1015B400B0F1FF3FB0D140F61910AFE70026B3E712
:1015C400154B4FF480621A604FF0E0239969124A78
:1015D4001268013A5A6100229A618F4211D2641A48
:1015E4003C440E4A136851681B1941F10001136011
:1015F400516085F31188BFF36F8FF8BD064B1A60F5
:10160400E2E77F1A054A13685168DB1941F10001CA
:1016140013605160EDE700BF300300209800002004
:101624002C03002090000020C5B3A29120DFFF000E
:1016340038B54FF01003EFF3118583F31288BFF32D
:101644006F8F084B1C68084B1B68E41AFFF7EEFE0B
:10165400204485F31188BFF36F8F044BA3FB003044
:10166400000B38BD9800002090000020C5B3A29163
:101674001A4B5A6802F00C03082B01D01848704723
:1016840002F470114FF4701393FAA3F3E3B1B3FAB5
:1016940083F321FA03F31349C85C104BD96A01F0B0
:1016A4000F010F2393FAA3F383B1B3FA83F321FA5F
:1016B40003F30D49C95C12F4803F09D0084BB3FB16
:1016C400F1F303FB00F070472023E2E72023EEE769
:1016D400034BB3FBF1F303FB00F07047001002402F
:1016E40000127A00F0430008E043000800B3114AF6
:1016F400904204D8104A904216D9012100E00221F8
:101704000E4A136823F007030B43136002220B4BAA
:101714001B6803F00703013A994201D0002AF6D16D
:10172400994203D0012070470021E9E70020704767
:1017340001207047006CDC0200366E01002002407C
:10174400034B00E01433034A9342FBD3704700BFBA
:10175400543D0008303E000838B54FF01003EFF355
:10176400118583F31288BFF36F8F064B9C6802F0D8
:10177400A8F885F31188BFF36F8F2046FEF7CEFFDC
:1017840038BD00BF3803002070B50646134B53F82C
:10179400204009E0434219E0EA681370EA6853788C
:1017A40043F0010353700834731C0C4A52F823307D
:1017B400A34212D965686DB12368002BEED0284688
:1017C400984703460028E9D00028E3DBFF2BE3DD3C
:1017D400FF23E1E723689847E5E770BD104400085C
:1017E40010B586B0B023114C03FB004400EB400C51
:1017F40000EB80000E4B03EB80030E4A059201229E
:1018040004920F22039200220292019200930A4B47
:101814004FF4A072094901EBCC11204600F012F9F3
:10182400637B23F00403637306B010BDA0000020A3
:101834003803002000440008F33A0008C00B0020DD
:1018440008B50A4B01221A700320FFF79DFF00F030
:10185400DFFD0420FFF798FF00F058F9FEF798FC2D
:10186400034A137B23F00103137308BD71030020A3
:101874005001002008B50146014A0248FFF752F81A
:10188400451800085001002008B50348034A121AFD
:10189400002102F019F808BD900000207403002014
:1018A40010B50446FFF79CFFB023114903FB041154
:1018B400104A04EB840302EB8303D9601C7404EB29
:1018C40044110D4B03EB811303F5046304EB84040F
:1018D40002EB84025360094BBFF35B8F53E8001F94
:1018E400013143E80012002AF8D1BFF35B8F10BD29
:1018F400A0000020380300208003002034030020CF
:1019040070B586B000F06CFB104D114B5D61114B4E
:1019140005930123049300240394029401940094F6
:101924000D4B4FF480620D49284600F08BF80646B3
:101934006B7B23F004036B73284602F033F82046D4
:10194400FFF7AEFF304606B070BD00BF5001002067
:10195400380300200844000845180008400D002002
:1019640000B5ADB00020FFF70FFF1C4B83F30888D0
:101974001B4C636943F400736361F02384F82230E1
:101984000025E57725766576A57684F82050636A88
:1019940043F4E0236362FEF795FEFEF7DFFF4FF0AA
:1019A400FF33A362E362FFF7A1F8FFF719F80124FC
:1019B4008DF80D408DF80C40259526952895094BFA
:1019C400C3F808D0FFF7BCFE2046FFF7DDFE022077
:1019D400FFF7DAFEFFF794FFFFF74CFFC00B002080
:1019E40000ED00E0380300204FF01003EFF3118105
:1019F40083F31288BFF36F8F0A4B1B6A834204D1AF
:101A04001A6F084B1A6207E0134613B11A6F824229
:101A1400FAD10BB1026F1A6781F31188BFF36F8F8C
:101A2400704700BF3803002008B553EA020102D111
:101A340001F072FF08BD0249183000F0E5FBF9E738
:101A44005F3A00082DE9F04F85B004460F4615466D
:101A54001E46DDF838A0DDF83C90DDF84080DDF866
:101A64004CB000F158038365C365129B042211999D
:101A740001F056FF2A463946204601F02DFF05465F
:101A8400CDF80880CDF80490CDF800A03346024686
:101A940039462046FEF700FF002363652666C4F836
:101AA40064A0C4F86890C4F86C804FF01003EFF39E
:101AB400118283F31288BFF36F8F134B196A216766
:101AC4001C6282F31188BFF36F8FBBF1000F13D038
:101AD4001F22594604F1740002F06BF8002384F8C5
:101AE4009330094B9B685BB1D3F8A030C4F8A030A5
:101AF400284605B0BDE8F08F002384F87430F0E781
:101B0400C4F8A030F4E700BF3803002010B586B055
:101B1400184C14E0636A0593236A0493E3690393FE
:101B2400A36902936369019323690093E368A2683C
:101B340061682068FFF786FF23685C6530340E4BCC
:101B44009C42E7D300F0A4F80A4C00E030340A4B7E
:101B54009C420BD2A26AE36AB3F1FF3F08BFB2F121
:101B6400FF3FF3D02068FFF75FFFEFE700F0C8F90D
:101B740006B010BDD8400008D8400008C3897F2BA8
:101B840011D80E4B1B687BB190F90E200C4B1B68CF
:101B94009A420CDB437B13F01F0F0AD1094B984286
:101BA40009D0012300E0002303F001007047002363
:101BB400FAE70023F8E70023F6E700BF68030020F4
:101BC40064030020A0000020044BC01AC010044B82
:101BD40003FB00F0034B01221A547047000200205B
:101BE400ABAAAAAA6003002070B505460D4B1E7C63
:101BF40006EB46030C4C04EBC304204601F0B7FF8C
:101C04000A4B00229A552846FFF7B8FF00B970BD69
:101C1400074B1A68013AD3170649204600F0F4FA34
:101C2400F5E700BF38030020000200206003002015
:101C340068030020CD1B000808B50B4659B9EFF323
:101C4400058242B9064A50699268904203D0084618
:101C5400FEF77EFD03E083F31188BFF36F8F08BDA9
:101C64003803002008B5034650B9EFF305823AB9AA
:101C7400064A51699268914202D0FEF769FD03E079
:101C840083F31188BFF36F8F08BD00BF38030020B2
:101C940000234FF01002EFF3118182F31288BFF397
:101CA4006F8F09E0064B9A68D37B013BD37381F3B2
:101CB4001188BFF36F8F0123002BF3D0704700BF4F
:101CC4003803002038B50446104801F064FE054688
:101CD40070B184B90E4B9B685A7B12F01F0F0AD166
:101CE400AA6942B9DA897F2A05D9094A53610BE006
:101CF400074BDD68EDE7064B9B68AB4202D02846F4
:101D0400FFF772FF024B5D6138BD00BF5003002036
:101D14003803002038B50546427B90F90D30002B7E
:101D24000ADB6B7B63F07F036B731B4B53F8184F19
:101D34009C4210D100240EE002F07F02427301465F
:101D4400164801F012FEECE763686B602C601D60BE
:101D5400656017E000246CB12146284601F0EFFDD0
:101D64000028F1DC002CF6D00B4BDB699C42F1D04F
:101D74002468F0E7084BDA6903F1180129606A6006
:101D84001560DD61044B9868A84214BF002001204F
:101D9400FFF798FF38BD00BF380300205003002030
:101DA40038B54FF01002EFF3118382F31288BFF3BA
:101DB4006F8F1D46144B9C68144B1B68A34217D0AD
:101DC400124B00221A60104B1B7C114AD35C53B196
:101DD4002046FFF7D3FE30B1637B13F01F0F0FD003
:101DE4002046FFF701FF85F31188BFF36F8F38BDDD
:101DF4002046FFF7F9FE85F31188BFF36F8FF6E7EE
:101E04002046FFF787FFEBE7380300205C03002040
:101E140060030020427B90F90D30002B33DB70B55A
:101E2400044612F01F0F01D1866906B170BD62F03D
:101E34007F024273144B53F8185F9D4208D1354614
:101E440006E06B68636025601C606C6017E03546D3
:101E54006DB12946204601F072FD0028F1DC002D09
:101E6400F6D0094BDB699D42F1D02D68F0E7064BB3
:101E7400DA6903F11801216062601460DC610020FA
:101E8400FFF720FFD2E770473803002010B54FF06A
:101E94001003EFF3118483F31288BFF36F8F437B36
:101EA40013F0040F04D184F31188BFF36F8F10BDB6
:101EB40023F004034373FFF7ADFF21460148FFF706
:101EC400BBFEF4E76C03002010B50446427B90F996
:101ED4000D30002B08DB084B9868A04214BF00208B
:101EE4000120FFF7EFFE10BD02F07F0242730146AE
:101EF400024801F03AFDEEE73803002050030020C9
:101F040010B500234FF01002EFF3118482F312880E
:101F1400BFF36F8F0CE0094B9A68D37B0133D37303
:101F24000020FFF7CFFE84F31188BFF36F8F0123E6
:101F3400002BF0D001F00DFD10BD00BF38030020D0
:101F440038B5437B0B4213D104460D460B43437310
:101F540003F09F02427312F0800F0AD1082D10D0B3
:101F64000120FFF7AFFE102D02D02046FFF73CFD05
:101F740038BD03F01F0343730146094801F0F5FC23
:101F8400ECE7A36813B1204601F0F7FC04F1180054
:101F940001F0EDFD04F1580001F020FDE0E700BF81
:101FA4005003002038B504460D4662B1082120468E
:101FB400FFF7C6FF094B9B68A34206D085F311883F
:101FC400BFF36F8F38BD1021F1E7EFF30583002BCA
:101FD400F4D12846FEF7BCFBF4E700BF3803002029
:101FE40008B5024801F05AFD08BD00BF4C030020AB
:101FF400F8B54FF01003EFF3118683F31288BFF3A3
:102004006F8F1D4CA1684B7B03F07F034B7304F16E
:102014001807384601F0A9FCA5686B7B63F07F03C1
:102024006B73A469BC4208D1002406E063686B604A
:102034002C601D60656017E000246CB121462846C1
:1020440001F07DFC0028F1DC002CF6D00A4BDB69A2
:102054009C42F1D02468F0E7074BDA6903F11801D8
:1020640029606A601560DD610120FFF72BFE3046B0
:10207400FEF76EFBF8BD00BF380300202DE9F041E8
:1020840050EA010338D004460E466FF001031B1AD0
:102094004FF0FF3262EB0102012B72F100022FDBE1
:1020A4006FF001052D1A4FF01003EFF3118883F33D
:1020B4001288BFF36F8F144FB868144B1860FFF782
:1020C40003FFB868224633461149183000F09CF8E3
:1020D400BA68537B43F0100353734046FEF738FB52
:1020E40001F063FD281A63EB0303012873F1000375
:1020F40000DA0020BDE8F081FFF77AFF0020F9E75D
:1021040001F053FD0519CEE7380300205C030020DD
:102114005F3A000808B5B1F1FF3F08BFB0F1FF3FD7
:1021240022D0FFF7ABFFC317093043F100030021AE
:10213400C21820D20A441149A1FB02CE2EF0030C8E
:102144000CEB9E0CA2EB0C02801A63F100024FF020
:10215400CC3300FB03F301FB0233A0FB01010B446E
:10216400400840EAC37008BD054B986801F07BFC49
:102174004FF0FF30F7E70121DCE700BFCDCCCCCC3A
:1021840038030020014B9868704700BF38030020D3
:1021940008B50648064A121A064901F099FB064A90
:1021A4000649074801F094FB08BD00BF0000002069
:1021B4008E00002060440008000000006044000815
:1021C40000000020034B1868984200D0704700209C
:1021D400FCE700BF7000002030B1044A526890420E
:1021E40001D0006870470020704700BF70000020D5
:1021F40008B5044B1B680BB1002008BDFFF718FAA3
:10220400FBE700BF6C030020B3F1FF3F08BFB2F14E
:10221400FF3F74D02DE9F047044692461D46816085
:1022240000234FF01002EFF3118782F31288BFF3FB
:102234006F8F26E01AF1010845F10009FFF7D8FF76
:1022440018EB000349EBE070236160613BE0521A34
:1022540066EB0303026143614368636020601C60B2
:10226400446005E0264B5A682360626014605C6039
:10227400FFF7A8FF84423AD087F31188BFF36F8F2A
:102284000123002B39D153466FF00101B1EB0A0150
:102294004FF0FF3060EB0502002ACBDB194A1168CE
:1022A40052685B1842EB05026FF00101C91A60EB3A
:1022B400020308461A46012973F1000301DA0120DA
:1022C400002220616261FFF77DFF0028CAD0026905
:1022D400466921696369914273EB060EB7DB891A7B
:1022E40063EB060321616361FFF776FFEDE701F01D
:1022F40021FC0021FFF708F9BEE7BDE8F08770472D
:10230400700000201802002070B54FF01003EFF3A6
:10231400118683F31288BFF36F8F2B4B1860FFF77E
:1023240051FF044624E0294A136851685B1941EBC4
:10233400E5711360516000220023C4E904232046A0
:1023440001F0E1FB86F31188BFF36F8FA368204689
:1023540098474FF01003EFF3118683F31288BFF30D
:102364006F8F194A13685B1B1360FFF72BFF04463A
:102374003CB125696169144B1A68D317AA428B4191
:10238400D1DA44B1236962690F4909685B1A62EBC7
:10239400E172236162610D4A0B4D2868136851682C
:1023A4001B1841EBE0711360516000242C6001F0B4
:1023B400C1FB2146FFF7A8F886F31188BFF36F8F9E
:1023C400FFF7EEFC70BD00BF6C0300201802002074
:1023D40010B500224FF01003EFF3118483F3128839
:1023E400BFF36F8F134611460CE0FFF701FF074A56
:1023F40013685168C31841EBE07184F31188BFF38B
:102404006F8F0122002AF0D0184610BD1802002058
:1024140008B5024800F077FB08BD00BF2844000857
:102424002DE9F04F8DB043680293837815469A07DF
:10243400804640F10D8100240E78002E00F00A81C0
:10244400252E0BD04B1C03930134029B414630468E
:1024540098470028C0F2F6800399EDE74E788B1C6C
:10246400252E0393F0D00027B946BB46BBF11F0FBE
:1024740038D8A6F12003102B0AD8DFE803F02A0984
:1024840009300909092109090928092D09091F0029
:10249400A6F13003092B33D92A2E37D11BF0400F74
:1024A40055F8043B40F08280002BA7BF4BF0200B73
:1024B4009946C3F100094BF0280B01E04BF0010BE6
:1024C400039B13F8016B0393002ECFD130E04BF044
:1024D400020B4BF0040BF3E74BF0080BF0E74BF067
:1024E400100BEDE7BBF17F0F19D8A6F13003092BD0
:1024F400D2D81BF0400F03D00A2101FB0737DFE7D6
:102504000A2101FB09394BF0200BD9E72E2E06D105
:102514001BF0400F40F09E804BF0400BD0E76C2E38
:1025240031D02BD8682E36D06A2E3CD04C2E3AD0DF
:10253400002F46F02003B8BF2BF04002A3F1650141
:10254400BCBF1FFA82FB0027022901D9612B2FD1BE
:10255400073525F00705DFF8ACA2083507271BF07F
:10256400080F66D00AEB070B56465E4563D1A4EB11
:102574000A0A06EB0A02A9EB07096FE1742E9FD041
:102584007A2E9DD0D4E71BF0800F18BF4BF4007B4C
:102594004BF0800B94E71BF4807F18BF4BF4007B57
:1025A4004BF4807B8CE74BF4207B89E71F4687E75D
:1025B400A6F16301122900F2F080DFE811F01300A4
:1025C4004F00EE00EE00EE00EE004F00EE00EE00D5
:1025D400EE00EE00EE00FE00E900EE00EE001B004F
:1025E400EE00AF0055F8043B8DF8183001270DF1CB
:1025F400180AB4E755F804AB834BBAF1000F08BFCF
:102604009A461BF0400F14BF39464FF0FF31504635
:1026140001F0DFFA0746A2E7029B414620209847D3
:1026240000280FDB013EB742F6D34C44A41BB1464D
:1026340098E74E46F7E716F8010B029B4146984788
:10264400002892DA98F8023043F0040388F8023044
:102654004FF0FF3420460DB0BDE8F08F1BF0800F23
:1026640034D01BF4007F2CD0073525F00705AA468B
:1026740069685AF8080B2BF010050029ADB237DA57
:10268400404261EB410145F480650DF1180B0A23CA
:102694005A4601F0AAFAA0EB0B0301936B0662D52C
:1026A400019B25F001019F4289B240F3A180002ED5
:1026B40000F0998015F0100240F09C80BB460D4656
:1026C40023E0AA465AF8040BC117D4E7AA461BF420
:1026D400807F5AF8041B01D10846F5E71BF4007FFC
:1026E40015BF48B208B241F3C01141F3C031C2E78B
:1026F40050EA0103C9D11BF0400FC6D0002FC4D14A
:102704002BF0110295B2BB46019740F2064115EA3F
:1027140001021CBF0BF1010B00222CE02BF0100274
:102724001FFA82FB0A231BF0800C49D01BF40071B2
:102734001DBF073525F00705AA46AA461ABF5AF851
:10274400080B69685AF8040B50EA010545D12BF0CF
:1027540016051BF0400FADB242D0002F40D12BF034
:10276400170295B2019715F0100248D0019B002E74
:1027740042D103F1010B29075AD4EB0706D5D945F9
:102784006FDD0199A9EB0B035F18CB465B4649E06B
:102794004BF0100B10237826C5E7782B04D1C6F133
:1027A400780343F01003BEE7029B41462520984777
:1027B4000028FFF647AF023447E608230026B2E7B5
:1027C400AA461BF480715AF8040BBDD01BF40071A7
:1027D4001ABFC0B2614680B2B6E72BF0060295B2CA
:1027E4000DF1180B54E725F01105ADB2BB468CE78B
:1027F4000D46B8E73B460D4603F1020BBBE7DDF897
:1028040004B082E75744000850440008CDE904327C
:102814004146029B202098470028FFF613AF049BF3
:10282400059A01339945F1DCA4EB0B01CC189B46C6
:102834000AB3029B4146302098470028FFF602AFB6
:102844008EB901342744019B391B994224DC1D466F
:102854005DBB019AA9EB0B092244554614469144E9
:1028640035E0019F92E7023441463046029B984787
:102874000028E7DAE6E640F206410D42E2D015F020
:10288400020F14BF2B20202015F4806F04F10104E3
:10289400414618BF2D20E9E7029B41463020984766
:1028A400002804F10104CEDACCE606AB013D414632
:1028B400585D029B98470028CADAC3E6029B41464A
:1028C40020209847002804F10104FFF6BBAEA9EBD1
:1028D4000403002BF2DCBFE5704738B58368056953
:1028E4009C697CB112F4000F06D02D6801238B4043
:1028F4001D4201D082F0C06202F0C06302F0B072E7
:10290400A04738BD6FF05700FBE738B5134685681C
:10291400046912F4801F07D012F4402F04D012F07F
:10292400010F01D082F4402323F4801213F0010F2D
:102934000AD023684FF0010C0CFA01FC43EA0C03A3
:1029440023602B68984738BD23684FF0010C0CFABC
:1029540001FC23EA0C032360F3E708B503468C4625
:1029640000681979DA8842EA0C02FFF7CEFF08BD45
:1029740038B50C46056983685B68984718B92368BD
:102984002A685340236038BD10B582B00C4601A9B3
:10299400FFF7EEFF30B90123A340019A134214BF9D
:1029A4000120002002B010BD08B532B1012303FAA2
:1029B40001F18368DB68984708BD012303FA01F13C
:1029C40083681B699847F7E710B503691C680123FE
:1029D4008B401C4202D0B2FA82F25209FFF7E4FFA4
:1029E40010BD08B58368DB6913B10122984708BD9F
:1029F4006FF05700FBE7704708B520EAE073D9177A
:102A04008A0042EA93729800C01841EB0201001850
:102A14004941FFF77FFB08BD10B5131D50F8234053
:102A240074B9C368012494402343C360043240F85A
:102A34002210CB001A1D89B281520633C15210BD37
:102A4400E2000432835A4FEAC10C0CF1040E20F860
:102A54000E300CF1060C20F80C40DB00063389B272
:102A6400C1528152EBE708B500EBC1035A88520802
:102A7400B2FA82F2C2F11F02FFF7CEFF08BD70B5B1
:102A84000346043AC81D20F007000A4422F0070256
:102A9400121AD508186085600023C360B5FA85F161
:102AA400C1F1200EC1F124018900CE1DF10805E019
:102AB40003F1040C002440F82C4001337345F7DB88
:102AC4004C00A4B244804FF0000CA0F800C044F0C5
:102AD400010444806B1A4FEA430E26F00704A51C38
:102AE40020F805E0015322F00704951C20F805C0E6
:102AF40002440353538843F001035380FFF7B3FFA9
:102B040070BD002070470FB400B583B004A951F81C
:102B1400040B0191FDF796FB03B05DF804EB04B0E0
:102B24007047704708B5FEF717FE08BD08B50146A3
:102B34000068FFF7F7FF08BD0020704700230B7003
:102B4400704708B500231370CB1E092B1AD8DFE891
:102B540003F005090D111919191919141146FDF776
:102B640023FD10E00021FDF7B5FC0CE00021FDF78A
:102B74001BFC08E0FDF75EFC05E01146FFF7DEFFF5
:102B8400002000E0002008BD08B540B2FDF73EFE7D
:102B940008BD08B5013140B2FDF746FE08BD08B5D1
:102BA40000210120FFF7BEFF08BD43685A1E1342EF
:102BB40006D11F2B06D903681A4205D0002070479E
:102BC40000207047002070470120704700B585B091
:102BD4000B6801934B688A68202B12D9B3F1004F1C
:102BE40011D8013BB3FA83F3C3F11F035B0003F075
:102BF4003E031343039301A9FDF726FF05B05DF8D7
:102C040004FB0823F5E73E23F3E72DE9F843804668
:102C14000F4699461646002509E02146F0B2FFF713
:102C2400D5FF064610F1160F14D001360135BD420A
:102C340010DA05EB450408EB84046268002AF5D039
:102C4400B9F1000FE9D02046FFF7AFFF0028E4D127
:102C54006FF015063046BDE8F883F0B585B005463B
:102C640003A8FDF73FFB0646002425E0B3F5801FCB
:102C740040F0C680576809589368202B64D9B3F193
:102C8400004F63D8013BB3FA83F3C3F11F035B0026
:102C940003F03E0343F0885343F43023009701913B
:102CA400029369462878FDF7CFFE0028C0F2A88079
:102CB4002B7801332B700134A64240F2A580200109
:102CC400039901EB0412D3681B0D1B05B3F5000F28
:102CD4005ED01DD8B3F5001F3AD0B3F5800FC5D12F
:102CE400576809589368202B4ED9B3F1004F4DD83B
:102CF400013BB3FA83F3C3F11F035B0003F03E030C
:102D040043F0E06343F40033009701910293C8E772
:102D1400B3F1807F56D0B3F1007F71D15768095861
:102D24009368202B68D9B3F1004F67D8013BB3FAFD
:102D340083F3C3F11F035B0003F03E0343F48023DA
:102D4400009701910293ACE70823A3E73E23A1E790
:102D5400576809589368202B12D9B3F1004F11D842
:102D6400013BB3FA83F3C3F11F035B0003F03E039B
:102D740043F0885343F4002300970191029390E7B2
:102D84000823F5E73E23F3E70823B9E73E23B7E733
:102D9400576809589368202B10D9B3F1004F0FD806
:102DA400013BB3FA83F3C3F11F035B0003F03E035B
:102DB40043F0827300970191029372E70823F7E7C7
:102DC4003E23F5E7576809589368202B10D9B3F1CF
:102DD400004F0FD8013BB3FA83F3C3F11F035B0029
:102DE40003F03E0343F0887300970191029358E780
:102DF4000823F7E73E23F5E708239FE73E239DE7F3
:102E04006FF0150005B0F0BD0020FBE708B5FDF735
:102E14002FFE08BD08B5FDF735FE08BD08B5FDF762
:102E2400A5FE002008BD08B5062201210020FDF7FB
:102E3400E9FE002211460620FFF7ABFE072201211E
:102E44000846FDF7DFFE002211460720FFF7A1FE2A
:102E5400082201210220FDF7D5FE00221146082098
:102E6400FFF797FE092201210320FDF7CBFE002284
:102E740011460920FFF78DFE0A2201210420FDF7E7
:102E8400C1FE002211460A20FFF783FE1722052106
:102E94000846FDF7B7FE002211461720FFF779FE1A
:102EA400282206210A20FDF7ADFE00221146282023
:102EB400FFF76FFE002008BDB0FBF1F07047062855
:102EC40006D86A23C34013F0010F04D000207047D2
:102ED4006FF0850070476FF0850070470B68A3F1B1
:102EE4001402082A09D803F1804303F504334A681D
:102EF40019680A431A60002070476FF08500704714
:102F04000B68A3F11402082A0AD803F1804303F5DD
:102F1400043349681A6822EA01021A6000207047E3
:102F24006FF08500704710B50C460868FFF7C7FFBF
:102F340000281FDB6368FF2B1DD0DAB202F1804248
:102F440002F50432C3F34231C3F3042399401368F6
:102F540023EA010313606168CBB203F1804303F5F4
:102F64000433C1F30242C1F304218A4019680A43BD
:102F74001A60002010BD0020FCE708B50868A0F125
:102F84001403082B0BD800F1804000F504300268CC
:102F94004B68934301D0012008BD0220FCE7FFF7F2
:102FA4008EFF08B10120F7E70220F5E70B4639B19F
:102FB4001168196041688A4209D000231360704780
:102FC4001368036041688A42F7D14360F5E74360C0
:102FD400F3E708B50A460368002101E019461B68B7
:102FE4002BB19342FAD1FFF7E1FF012000E000206A
:102FF40008BD70B504460D461646036833B1FFF7A5
:10300400E8FF70B91EB96FF0150006E032B123680D
:103014002B602560636843B1002070BD6FF015001C
:10302400FBE7002EF3D10020F7E765600020F4E70A
:1030340070B50E461546016821B10C683CB131B932
:103044000C4604E00C4602E0234621461C4671B1BE
:103054008A682A4002D04B6830469847002CF3D047
:103064002368002BF1D0002CEFD12346EDE770BD8F
:1030740008B50B4601228240496803F10800FFF7B6
:10308400D7FF08BD10F4003F1BD010230B6010F0D5
:10309400020F04D010F0040F2CD050230B6010F05A
:1030A400100F05D00B6843F400730B6000207047C9
:1030B40010F0200F21D00B6843F480630B600020D4
:1030C400704710F4803F11D000230B6010F0100FF4
:1030D40004D04FF400730B600020704710F0200FF1
:1030E4000DD04FF480630B600020704730230B60D9
:1030F400002070476FF08500704700207047002063
:10310400704743685B681B690B6000207047436825
:103114005B68586942400A4042405A610020704747
:1031240043685B6899610020704743685B689962F3
:103134000020704743685A6853694B40536100202C
:10314400704708B500690830FFF753FF08BD10B495
:10315400046891FAA1F39BB1B3FA83F35B004FF0D7
:10316400030C0CFA03F324EA030391FAA1F149B125
:10317400B1FA81F149008A401343036010BC7047DF
:103184002023EBE72021F5E710B4846891FAA1F33A
:103194009BB1B3FA83F35B004FF0030C0CFA03F317
:1031A40024EA030391FAA1F149B1B1FA81F149008A
:1031B4008A401343836010BC70472023EBE720212F
:1031C400F5E710B4C46891FAA1F39BB1B3FA83F3A1
:1031D4005B004FF0030C0CFA03F324EA030391FAA7
:1031E400A1F149B1B1FA81F149008A401343C360A6
:1031F40010BC70472023EBE72021F5E710B4046AE4
:1032040091FAA1F39BB1B3FA83F39B004FF00F0C37
:103214000CFA03F324EA030391FAA1F149B1B1FAD8
:1032240081F189008A401343036210BC7047202354
:10323400EBE72021F5E710B4446A090A91FAA1F3F7
:103244009BB1B3FA83F39B004FF00F0C0CFA03F31A
:1032540024EA030491FAA1F149B1B1FA81F1890098
:103264008A401443446210BC70472023EBE72021BA
:10327400F5E72DE9F8430F461546984643685E681E
:1032840001248C4002F03009C2F38013706820EAF4
:1032940004008B4018437060C2F3C11221463046CB
:1032A400FFF772FFC5F3412221463046FFF789FF3D
:1032B400B9F1200F07D04FEA191221463046FFF723
:1032C40046FFBDE8F883072F05DC42462146304619
:1032D400FFF794FFEFE7424621463046FFF7ABFF86
:1032E400E9E7F0B583B007460D46144601A9104638
:1032F400FFF7C8FE064670B914F4003F05D014F475
:10330400002F0BD114F4802F0ED10023019A2946EB
:103314003846FFF7AEFF304603B0F0BD0121A940A7
:103324003846FFF7FDFEF0E70121A9403846FFF7D4
:10333400FCFEEAE708B54A4201F0030302F0030287
:1033440058BF534204339B000F2202FA03F30A4688
:10335400002904DB43EAA201FDF746FE08BDCA1CAE
:10336400F8E708B5424200F0030302F0030258BF35
:10337400534204339B000F2202FA03F3024600284F
:1033840004DB43EAA200FDF769FE08BDC21CF8E7AE
:10339400F8B507460E4614461D46FFF76AFF112D81
:1033A40001D00020F8BD14F4006407D1002CF8D13A
:1033B4000121B1403846FFF7B8FEF2E70121B140E0
:1033C4003846FFF7ADFEECE700B50368136001E093
:1033D40008331360136890F804C0D0F800E00EEBD3
:1033E400CC0C634505D293F805C08C45F0D1002080
:1033F40001E06FF001005DF804FBF8B506460F46E6
:103404000024254614E002F01F0110291FD01129C1
:103414001BD0530A1B01DBB2C2F3431002F01F029C
:1034240029461843FDF78EFE002813DB0134E4B26D
:10343400BC420ED206EBC40356F8342012F0100F2F
:10344400E1D15D6845F02005E3E75D68E1E73025FB
:10345400DFE70020F8BD43681868C1F34B1301F09F
:103464001F01C05801238B40184214BF01230023BD
:1034740013700020704710B443681C68C1F34B10EC
:1034840001F01F01235801228A40134323500020D6
:1034940010BC704710B443681C68C1F34B1001F0B2
:1034A4001F01235801228A4023EA020323500020EB
:1034B40010BC704738B504460D46FFF7DCFF2946BB
:1034C4002046FFF7E7FF002038BD08B58368DB68B6
:1034D4000BB1984708BD6FF05700FBE730B583B0D8
:1034E4000C46456803691868E9688368DB6883B13A
:1034F40001AA984700280CDB2A68136823F40043C8
:1035040013602A68019B03EB5403B3FBF4F39BB2EF
:10351400D36003B030BD436829B11A68936843F49B
:103524008043936070471A68936823F480439360E0
:103534007047B0F5805F07D0B0F1805F07D109B163
:10354400012070470220704721B90420704719B93F
:103554000320704703207047022070472DE9F04193
:1035640004460D46476803695E680979012914D049
:10357400022915D14FF480636A79012A15D0022AF1
:1035840015D07AB14FF40052A879022812D0042839
:1035940016D0002967D1002014E04FF4C063EBE794
:1035A4000023E9E74FF48052EEE70022ECE74FF402
:1035B4004052E9E709B1002004E04FF0805001E0F7
:1035C4004FF48050E979012950D04FF0000C0329C1
:1035D40014BF00210121AE424BD0D7F80080D8F8A7
:1035E400007007F4C06E734506D0D8F8007027F455
:1035F400C0673B43C8F8003063681F687B6803F406
:1036040040539A4204D07B6823F4405313437B60B5
:1036140063681A68136803F01023984204D013688F
:1036240023F010231843106063681A68936803F446
:1036340040739C4505D0936823F440734CEA03031C
:10364400936063681B689B6813F4804300D0012374
:10365400003B18BF0123994226D129683368994257
:1036640026D1BDE8F0814FF48050ABE74FF4407CA5
:10367400ADE73E68316821F0805121F4B051034335
:1036840019433160736823F44053134373606368D0
:103694001A68936823F440734CEA0303936029681F
:1036A4002046FFF71BFFDCE72046FFF734FFD4E793
:1036B4002046FFF713FF2B683360D2E738B5044682
:1036C4000D4603695B681B680B6043681B681B68D5
:1036D40003F4C063B3F5806F31D0B3F5C06F30D15C
:1036E40001232B7163681B685B6803F44053B3F5D3
:1036F400805F2AD0B3F5405F29D023B303236B71D5
:1037040063681B681868196801F4C06100F0102030
:10371400FFF70FFFA87163681B689B6803F440738D
:10372400B3F5407F15D00023EB7163681B689B6879
:1037340013F4804F01D00323EB71002038BD022322
:10374400CFE70023CDE70123D9E70023D7E70223FE
:10375400D5E70123E8E710B540680368DC6914F095
:10376400080F01D008241C620368DB6913F0200FE2
:1037740002D09047002010BD4FF0FF30FBE710B59A
:1037840040680368DB6913F0800FFAD04FF0100330
:10379400EFF3118483F31288BFF36F8F0368DB693F
:1037A40013F0800F04D184F31188BFF36F8FE8E71F
:1037B400904784F31188BFF36F8F10BD03689B8C0F
:1037C4000B70704703680A781A857047426813685B
:1037D400D86910F0080000D00120D96911F0010F58
:1037E40001D040F00200D96911F0020F01D040F07D
:1037F4000400D96911F0040F01D040F02000D96908
:1038040011F4807F01D040F0080010F0080F02D0BE
:103814004FF48071196210F0010F02D0136808216F
:10382400196210F0020F02D013680121196210F01E
:10383400040F02D013680221196210F0200F02D085
:10384400136804221A62704700B583B001AAFFF717
:10385400BBFD002805DB019B002219791868FFF7DE
:10386400CCFD03B05DF804FB38B504464568FDF7AC
:1038740043FD00280BDB0021286AFFF7E5FF002841
:1038840005DB2046FDF74CFD002800DB002038BD99
:1038940060B1C3685A7812F0010F03D01B781BB1D2
:1038A40000207047002070470120704700207047B7
:1038B4004FF01002EFF3118382F31288BFF36F8F7E
:1038C400FEE708B5FFF7F4FF08B500F0F3F908BD0B
:1038D40008B500F0E1F908BDF8B50646D51D25F098
:1038E400070501F1400715F1400305D3404080F37B
:1038F40011884FF0040002DFCC1821463046FCF753
:1039040021FDC31D23F00703C6F89470C6F8985030
:10391400C6F89C30E01AF8BD08B5FEF7B7FA08BD42
:1039240010B400248460037342738173C47384618C
:10393400C46110BC7047002070478068704790F9DC
:103944000E3091F90E00834201D0C01A7047002056
:10395400704708B54FF01003EFF3118083F312881A
:10396400BFF36F8FFEF77EF908BD4A680B681360DA
:103974005A6000230B604B60704710B50446FFF794
:10398400DCFF2146FFF7F1FF637B23F0020363733F
:103994000023A36010BD03460068834200D0704733
:1039A4000020FCE738B5044600234FF01002EFF383
:1039B400118582F31288BFF36F8F04E085F31188B9
:1039C400BFF36F8F012343B92046FFF7B4FF0028EC
:1039D400F4D12046FEF71EFAF0E738BD38B50546A7
:1039E4002C68A5420ED06CB12046FFF7C6FF04F147
:1039F400180000F0BCF80023C4F8AC302046FEF7F1
:103A040009FAEDE738BD70B504460E4600234FF0C1
:103A14001002EFF3118582F31288BFF36F8F07E072
:103A24002046FEF7F7F985F31188BFF36F8F012362
:103A340093B9637B13F0280FF5D1A36813B1204623
:103A4400FFF79BFF637B23F004026273002EE7D031
:103A540023F014036373E3E770BD08B5012118383C
:103A6400FFF7D1FF08BD10B50446183000F07FF809
:103A74004FF01003EFF3118183F31288BFF36F8FBC
:103A8400637B13F0100F04D081F31188BFF36F8FA1
:103A940010BD00222046FEF785FAF9E7031D4360B6
:103AA4008360704708B54FF01003EFF3118183F37F
:103AB4001288BFF36F8F037B13F0010F08D1437B90
:103AC40013F0080F0FD081F31188BFF36F8F09E053
:103AD40081F31188BFF36F8F404080F311884FF05A
:103AE400040002DF08BD0122FEF75CFAFAE708B51C
:103AF4004FF01002EFF3118382F31288BFF36F8F3C
:103B0400FCF732FFF4E710B50446FEF765FB48B155
:103B140002460369416920691B18606941EB000191
:103B2400136151616268236813605A600023236043
:103B3400636010BD10B5FEF745FB0446FEF758FB65
:103B44007CB1236962691B1A62EBE072B3F1004F26
:103B540072F1000108DA002A01DB184610BD0023C7
:103B6400FBE76FF00040F9E76FF00040F6E770B54F
:103B7400044600234FF01002EFF3118682F31288FB
:103B8400BFF36F8F6FF0150004E086F31188BFF365
:103B94006F8F01231D463BB92368002BF5D02046C7
:103BA400FFF7B1FF2846F0E770BD08B5FEF710FC3B
:103BB40008BD10B50139044632B111F8013F00F8CF
:103BC400013B013A002BF7D1002100F073F82046A5
:103BD40010BD10B5024601448A42134603D01C7836
:103BE4000132002CF8D1181A10BDF0B5C3F1370713
:103BF4000446FFB203F01F031046082BE6B233D08D
:103C0400102B3ED06508A40844EA817445EAC175C6
:103C14002D194FEA910242EB5102290941EA02713E
:103C24006D1842EB1212290A41EA02616D1842EB47
:103C34001222290C41EA02416D1842EB1242AD18DE
:103C440042F10002EC0844EA4274D10804EB840215
:103C5400A6EB4205EDB2092D0CD90134A5F10A05F4
:103C640041F10001EDB212E0E40844EA417406F0C7
:103C74000705C908303554EA010200F8015BBCD1DC
:103C8400F0BD240944EA017406F00F050909092D61
:103C940084BFED19EDB2EDE70A44914200F1FF3320
:103CA40000D1704710B511F8014B03F8014F914250
:103CB400F9D110BD02440346934200D1704703F882
:103CC400011BF9E701480068704700002C0200203E
:103CD400B502000800000000D50D0008543D00089E
:103CE400D50200080000000000000000683D000844
:103CF4001D110008CC3D00081D110008F43D00080A
:103D04002B2E00087C3D00081D110008E03D000832
:103D14001D110008B83D00081D110008A43D00084D
:103D24001D110008903D00086D380008083E000889
:103D34006D3800081C3E0008A90F000800000000B0
:103D44007914000800000000990B0008000000002E
:103D5400A441000800000000300000207A00002088
:103D640000000000DC420008F0420008F4420008B1
:103D740088000020000000008441000800000000CA
:103D840000000000780000204C020020B44100082C
:103D9400144200088C4200087C000020CC02002061
:103DA400C4410008284200088C4200087E0000201C
:103DB400DC020020D44100083C4200088C42000888
:103DC40080000020EC020020E4410008504200087A
:103DD4008C42000882000020FC020020F44100080C
:103DE400644200088C420008840000200C03002078
:103DF40004420008784200088C4200088600002033
:103E04001C0300200443000824430008BC430008AA
:103E14008A0000204C00002014430008704300086E
:0C3E2400BC4300088C0000205C00002063
:103E300000000000A32B000800000000A32B0008D6
:103E400000000000A32B000800000000A32B0008C6
:103E500000000000A32B000800000000A32B0008B6
:103E600080410008BD0B00087C410008BD0B000824
:103E700078410008BD0B000874410008BD0B000824
:103E800070410008BD0B000800000000A32B0008D3
:103E900000000000A32B000800000000A32B000876
:103EA00000000000A32B000800000000A32B000866
:103EB00000000000A32B000800000000A32B000856
:103EC00000000000A32B000800000000A32B000846
:103ED00000000000A32B000800000000A32B000836
:103EE00000000000A32B00086C410008BD0B000877
:103EF00000000000A32B000800000000A32B000816
:103F000000000000A32B000800000000A32B000805
:103F100000000000A32B000800000000A32B0008F5
:103F200000000000A32B000800000000A32B0008E5
:103F300000000000A32B000800000000A32B0008D5
:103F400000000000A32B000800000000A32B0008C5
:103F500000000000A32B000800000000A32B0008B5
:103F600000000000A32B000800000000A32B0008A5
:103F700068410008BD0B000800000000A32B0008EA
:103F800000000000A32B000800000000A32B000885
:103F900000000000A32B000800000000A32B000875
:103FA00000000000A32B000800000000A32B000865
:103FB00000000000A32B000800000000A32B000855
:103FC00000000000A32B000800000000A32B000845
:103FD00000000000A32B000800000000A32B000835
:103FE00000000000A32B000800000000A32B000825
:103FF00000000000A32B000800000000A32B000815
:1040000000000000A32B000800000000A32B000804
:1040100000000000A32B000800000000A32B0008F4
:1040200000000000A32B000800000000A32B0008E4
:1040300000000000A32B000800000000A32B0008D4
:1040400000000000A32B000800000000A32B0008C4
:1040500000000000A32B000800000000A32B0008B4
:1040600000000000A32B000800000000A32B0008A4
:1040700000000000A32B000800000000A32B000894
:1040800000000000A32B000800000000A32B000884
:1040900000000000A32B000800000000A32B000874
:1040A00000000000A32B000800000000A32B000864
:1040B00000000000A32B000800000000A32B000854
:1040C00000000000A32B000800000000A32B000844
:0840D00000000000A32B000812
:1040D800040000000F0000000100000008000000BC
:1040E8002000000060000000700000000D000000CB
:1040F8000C0000000E0000005000000074000000DA
:10410800A8000000FFFFFFFFFFFFFFFFFFFFFFFF0B
:04411800FFFFFFFFA7
:10411C001800000001000000CC3D00080D0001005B
:10412C00000000200000000000000B060200000050
:10413C0050410008464C4153485F30005352414DAA
:10414C005F30000000000008404100082400020716
:10415C0000000020484100081E000B110A06000058
:10416C00050500000401000003010000020100002D
:10417C000101000000010000696E746572727570B7
:10418C00742D636F6E74726F6C6C6572403430306A
:10419C0031303430300000007263634034303032E0
:1041AC0031303030000000006770696F40343830B7
:1041BC0030313430300000006770696F4034383073
:1041CC0030313030300000006770696F4034383067
:1041DC0030306330300000006770696F4034383025
:1041EC0030303830300000006770696F4034383040
:1041FC0030303430300000006770696F4034383034
:10420C003030303030000000FFFF00000014004858
:10421C00050000001400000000004000FFFF00003B
:10422C0000100048040000001400000000002000F2
:10423C00FFFF0000000C0048030000001400000009
:10424C0000001000FFFF0000000800480200000002
:10425C001400000000000800FFFF000000040048EC
:10426C00010000001400000000000400FFFF00002B
:10427C0000000048000000001400000000000200D4
:10428C00E732000807310008133100082531000817
:10429C002F31000839310008891000084731000817
:1042AC0000000000F43D0008E03D0008CC3D000893
:1042BC00B83D0008A43D0008903D00080000000037
:1042CC0000000000000000000000000000000000E2
:1042DC0072657365742D636F6E74726F6C6C65723E
:1042EC0000000000001002405B3400087B34000822
:1042FC0099340008B934000873657269616C4034F4
:10430C00303030343430300073657269616C403455
:10431C00303031333830300000440040683D000804
:10432C0011020000484300080100000000000000DA
:10433C000000000000000000504300081C000000BA
:10434C000000020058430008010000006043000810
:10435C00020000004700000000020000670000009F
:10436C000000000000380140683D00088E0100008C
:10437C009443000801000000000000000000000051
:10438C00000000009C4300081800000000400000E2
:10439C00A443000801000000AC4300080200000028
:1043AC00270100000002000047010000000000008F
:1043BC00D1120008E1120008D13700088911000859
:1043CC00C1360008000000000000000001020304D8
:1043DC00060708090102030405060708090A0B0C65
:1043EC000D0E0F1002030405060708090A0B0C0D2D
:1043FC000E0F101069646C65000000006D61696E31
:10440C0000000000D43C0008D43C0008443D0008E7
:10441C004C3D0008543D0008543D00082A2A2A202F
:10442C00426F6F74696E67205A6570687972204F9D
:10443C0053206275696C642076332E362E30202A18
:10444C002A2A0A00286E756C6C29002A666C6F612A
:04445C00742A0000BE
:10446000F43D000805000000072B000809030008C0
:1044700000000000212E00080000000000000000E5
:10448000FFFFFFFFFFFFFFFFFFFFFFFFFFFFFFFF3C
:10449000E12E0008052F000800000000690E00084A
:1044A0007F2F0008000000002B2F000800000000F4
:1044B0005400002000C201000001030000000000C1
:1044C0006400002000C201000001030000127A0015
:0844D0007000002070000020C4
:1044D80000000000000000000000000000000000D4
:0644E800000000000000CE
:0444EE0015E015E0E0
:04000005080006EDFC
:00000001FF
